{
  "_format": "hh-sol-artifact-1",
  "contractName": "Proxy",
  "sourceName": "contracts/Proxy.sol",
  "abi": [
    {
      "inputs": [
        {
          "internalType": "address",
          "name": "_signer",
          "type": "address"
        }
      ],
      "name": "addToWhitelist",
      "outputs": [],
      "stateMutability": "nonpayable",
      "type": "function"
    },
    {
      "inputs": [
        {
          "internalType": "address",
          "name": "_to",
          "type": "address"
        },
        {
          "internalType": "bytes",
          "name": "_data",
          "type": "bytes"
        },
        {
          "internalType": "bytes",
          "name": "_signature",
          "type": "bytes"
        }
      ],
      "name": "forward",
      "outputs": [
        {
          "internalType": "bytes",
          "name": "_result",
          "type": "bytes"
        }
      ],
      "stateMutability": "payable",
      "type": "function"
    }
  ],
  "bytecode": "0x6080604052739cc16250e83ebef01ec56cfba9c440c3c3dc56f5600160006101000a81548173ffffffffffffffffffffffffffffffffffffffff021916908373ffffffffffffffffffffffffffffffffffffffff16021790555034801561006557600080fd5b50610f58806100756000396000f3fe6080604052600436106100295760003560e01c8063b13ba5de1461002e578063e43252d71461005e575b600080fd5b610048600480360381019061004391906108d8565b610087565b60405161005591906109f0565b60405180910390f35b34801561006a57600080fd5b5061008560048036038101906100809190610a12565b61018a565b005b60606000610097868686866101e4565b8573ffffffffffffffffffffffffffffffffffffffff1685856040516100be929190610a6f565b6000604051808303816000865af19150503d80600081146100fb576040519150601f19603f3d011682016040523d82523d6000602084013e610100565b606091505b50809350819250505080610118573d6000803e3d6000fd5b600160009054906101000a900473ffffffffffffffffffffffffffffffffffffffff1673ffffffffffffffffffffffffffffffffffffffff166108fc349081150290604051600060405180830381858888f19350505050158015610180573d6000803e3d6000fd5b5050949350505050565b60016000808373ffffffffffffffffffffffffffffffffffffffff1673ffffffffffffffffffffffffffffffffffffffff16815260200190815260200160002060006101000a81548160ff02191690831515021790555050565b600073ffffffffffffffffffffffffffffffffffffffff168473ffffffffffffffffffffffffffffffffffffffff161415610254576040517f08c379a000000000000000000000000000000000000000000000000000000000815260040161024b90610ae5565b60405180910390fd5b600084848460405160200161026b93929190610b41565b604051602081830303815290604052905060006102a0836102928480519060200120610335565b61036590919063ffffffff16565b90506000808273ffffffffffffffffffffffffffffffffffffffff1673ffffffffffffffffffffffffffffffffffffffff16815260200190815260200160002060009054906101000a900460ff1661032d576040517f08c379a000000000000000000000000000000000000000000000000000000000815260040161032490610bbf565b60405180910390fd5b505050505050565b6000816040516020016103489190610c61565b604051602081830303815290604052805190602001209050919050565b6000806000610374858561038c565b91509150610381816103de565b819250505092915050565b6000806041835114156103ce5760008060006020860151925060408601519150606086015160001a90506103c2878285856105b3565b945094505050506103d7565b60006002915091505b9250929050565b600060048111156103f2576103f1610c87565b5b81600481111561040557610404610c87565b5b1415610410576105b0565b6001600481111561042457610423610c87565b5b81600481111561043757610436610c87565b5b1415610478576040517f08c379a000000000000000000000000000000000000000000000000000000000815260040161046f90610d02565b60405180910390fd5b6002600481111561048c5761048b610c87565b5b81600481111561049f5761049e610c87565b5b14156104e0576040517f08c379a00000000000000000000000000000000000000000000000000000000081526004016104d790610d6e565b60405180910390fd5b600360048111156104f4576104f3610c87565b5b81600481111561050757610506610c87565b5b1415610548576040517f08c379a000000000000000000000000000000000000000000000000000000000815260040161053f90610e00565b60405180910390fd5b60048081111561055b5761055a610c87565b5b81600481111561056e5761056d610c87565b5b14156105af576040517f08c379a00000000000000000000000000000000000000000000000000000000081526004016105a690610e92565b60405180910390fd5b5b50565b6000807f7fffffffffffffffffffffffffffffff5d576e7357a4501ddfe92f46681b20a08360001c11156105ee5760006003915091506106b7565b601b8560ff16141580156106065750601c8560ff1614155b156106185760006004915091506106b7565b60006001878787876040516000815260200160405260405161063d9493929190610edd565b6020604051602081039080840390855afa15801561065f573d6000803e3d6000fd5b505050602060405103519050600073ffffffffffffffffffffffffffffffffffffffff168173ffffffffffffffffffffffffffffffffffffffff1614156106ae576000600192509250506106b7565b80600092509250505b94509492505050565b6000604051905090565b600080fd5b600080fd5b600073ffffffffffffffffffffffffffffffffffffffff82169050919050565b60006106ff826106d4565b9050919050565b61070f816106f4565b811461071a57600080fd5b50565b60008135905061072c81610706565b92915050565b600080fd5b600080fd5b600080fd5b60008083601f84011261075757610756610732565b5b8235905067ffffffffffffffff81111561077457610773610737565b5b6020830191508360018202830111156107905761078f61073c565b5b9250929050565b600080fd5b6000601f19601f8301169050919050565b7f4e487b7100000000000000000000000000000000000000000000000000000000600052604160045260246000fd5b6107e58261079c565b810181811067ffffffffffffffff82111715610804576108036107ad565b5b80604052505050565b60006108176106c0565b905061082382826107dc565b919050565b600067ffffffffffffffff821115610843576108426107ad565b5b61084c8261079c565b9050602081019050919050565b82818337600083830152505050565b600061087b61087684610828565b61080d565b90508281526020810184848401111561089757610896610797565b5b6108a2848285610859565b509392505050565b600082601f8301126108bf576108be610732565b5b81356108cf848260208601610868565b91505092915050565b600080600080606085870312156108f2576108f16106ca565b5b60006109008782880161071d565b945050602085013567ffffffffffffffff811115610921576109206106cf565b5b61092d87828801610741565b9350935050604085013567ffffffffffffffff8111156109505761094f6106cf565b5b61095c878288016108aa565b91505092959194509250565b600081519050919050565b600082825260208201905092915050565b60005b838110156109a2578082015181840152602081019050610987565b838111156109b1576000848401525b50505050565b60006109c282610968565b6109cc8185610973565b93506109dc818560208601610984565b6109e58161079c565b840191505092915050565b60006020820190508181036000830152610a0a81846109b7565b905092915050565b600060208284031215610a2857610a276106ca565b5b6000610a368482850161071d565b91505092915050565b600081905092915050565b6000610a568385610a3f565b9350610a63838584610859565b82840190509392505050565b6000610a7c828486610a4a565b91508190509392505050565b600082825260208201905092915050565b7f696e76616c696420746172676574206164647265737300000000000000000000600082015250565b6000610acf601683610a88565b9150610ada82610a99565b602082019050919050565b60006020820190508181036000830152610afe81610ac2565b9050919050565b610b0e816106f4565b82525050565b6000610b208385610973565b9350610b2d838584610859565b610b368361079c565b840190509392505050565b6000604082019050610b566000830186610b05565b8181036020830152610b69818486610b14565b9050949350505050565b7f5369676e61747572652076616c69646174696f6e206661696c65640000000000600082015250565b6000610ba9601b83610a88565b9150610bb482610b73565b602082019050919050565b60006020820190508181036000830152610bd881610b9c565b9050919050565b600081905092915050565b7f19457468657265756d205369676e6564204d6573736167653a0a333200000000600082015250565b6000610c20601c83610bdf565b9150610c2b82610bea565b601c82019050919050565b6000819050919050565b6000819050919050565b610c5b610c5682610c36565b610c40565b82525050565b6000610c6c82610c13565b9150610c788284610c4a565b60208201915081905092915050565b7f4e487b7100000000000000000000000000000000000000000000000000000000600052602160045260246000fd5b7f45434453413a20696e76616c6964207369676e61747572650000000000000000600082015250565b6000610cec601883610a88565b9150610cf782610cb6565b602082019050919050565b60006020820190508181036000830152610d1b81610cdf565b9050919050565b7f45434453413a20696e76616c6964207369676e6174757265206c656e67746800600082015250565b6000610d58601f83610a88565b9150610d6382610d22565b602082019050919050565b60006020820190508181036000830152610d8781610d4b565b9050919050565b7f45434453413a20696e76616c6964207369676e6174757265202773272076616c60008201527f7565000000000000000000000000000000000000000000000000000000000000602082015250565b6000610dea602283610a88565b9150610df582610d8e565b604082019050919050565b60006020820190508181036000830152610e1981610ddd565b9050919050565b7f45434453413a20696e76616c6964207369676e6174757265202776272076616c60008201527f7565000000000000000000000000000000000000000000000000000000000000602082015250565b6000610e7c602283610a88565b9150610e8782610e20565b604082019050919050565b60006020820190508181036000830152610eab81610e6f565b9050919050565b610ebb81610c36565b82525050565b600060ff82169050919050565b610ed781610ec1565b82525050565b6000608082019050610ef26000830187610eb2565b610eff6020830186610ece565b610f0c6040830185610eb2565b610f196060830184610eb2565b9594505050505056fea26469706673582212201831358a5015027f1c1c155dbd1021681cf9c681ae13d13330ccf54e189135a564736f6c63430008090033",
  "linkReferences": {},
  "deployedLinkReferences": {}
}